000000025122CLOSEDBOOK000025NEST01042           000000000001775119012022                                                                       903019011        005394                     RP                                         OPP  NESTREG                       00000000          00000 000000000000                                                                             
000000025122CLOSEDBOOK000025NEST01042           000000000001344819012022                                                                       945869011        037533                     RP                                         OPP  NESTREG                       00000000          00000 000000000000                                                                             
000000025122CLOSEDBOOK000025NEST05011           000000000001344819012022                           DD     MR TYSON MCFAULL           EH30 9SE  BPM50891000                                                                                                               00000000          00000 000000001137                                                                             
000000025122CLOSEDBOOK000025NEST05011           000000000001775119012022                           DD     MR GARNET GONOUDE          EH46 4SE  BPM07001000                                                                                                               00000000          00000 000000001139                                                                             
000000025122CLOSEDBOOK000025NEST05100           000000000001344819012022                           DD                                          BPM50891000      037533                     RP                                         OPP  NESTREG                       00000000          00000 000000001137                                                                             
000000025122CLOSEDBOOK000025NEST05100           000000000001775119012022                           DD                                          BPM07001000      005394                     RP                                         OPP  NESTREG                       00000000          00000 000000001139                                                                             
000000025122CLOSEDBOOK000025NEST05200           000000000001775119012022                                                                       903019011        005394                     RP                                         OPP  NESTREG                       00000000          00000 000000000000                                                                             
000000025122CLOSEDBOOK000025NEST05200           000000000001344819012022                                                                       945869011        037533                     RP                                         OPP  NESTREG                       00000000          00000 000000000000
0000000259990000000080000000000124796